:020000040800F2
:1000000018040020490100085101000853010008AC
:1000100055010008570100085901000800000000C0
:100020000000000000000000000000005B0100086C
:100030005D010008000000005F0100086101000888
:100040006301000863010008630100086301000800
:1000500063010008630100088902000863010008C9
:1000600063010008630100086301000863010008E0
:1000700063010008630100086301000863010008D0
:1000800063010008630100086301000863010008C0
:1000900063010008630100086301000863010008B0
:1000A00063010008630100086301000863010008A0
:1000B0006301000863010008630100086301000890
:1000C0006301000863010008630100086301000880
:1000D0006301000863010008630100086301000870
:1000E0006301000863010008630100086301000860
:1000F0006301000863010008630100086301000850
:10010000630100086301000863010008630100083F
:10011000630100086301000863010008630100082F
:10012000630100086301000863010008630100081F
:10013000DFF810D000F03CF800480047890C0008B8
:10014000AFF30080180400200648804706480047A7
:10015000FEE7FEE7FEE7FEE7FEE7FEE7FEE7FEE777
:10016000FEE7FEE781070008310100080022CBB25C
:100170000178994200D10246401C0029F8D110466E
:10018000704730B50B46014600202022012409E0CB
:1001900021FA02F59D4205D303FA02F5491B04FA40
:1001A00002F52844151EA2F10102F1DC30BD000069
:1001B000064C074D06E0E06840F0010394E80700B4
:1001C00098471034AC42F6D3FFF7B6FF180D00087D
:1001D000380D000810B500F001F810BD00B585B06D
:1001E000012144F2040000F0DDF94FF40070ADF895
:1001F000100018208DF8130003208DF8120004A9B8
:10020000134800F003F94FF48060ADF810000420AB
:100210008DF8130004A90E4800F0F8F84FF4E1300F
:1002200000900020ADF80C000C20ADF80A00002072
:10023000ADF80800ADF80600ADF8040069460548C1
:1002400000F0E8FA0121034800F0CAFA05B000BD49
:10025000000801400038014010B5044600BF80216D
:10026000084800F0C9FA0028F9D02146054800F0F6
:100270003DFB00BF4021034800F0BEFA0028F9D042
:1002800010BD00000038014010B5012000F00CF84E
:1002900010B1012000F002F810BD00000149086013
:1002A0007047000014040140014600200022074B63
:1002B0001B6803EA0102054B14331B680B4013B1A2
:1002C0000AB1012000E00020704700000004014056
:1002D000002123498279002A3AD00A46126803682D
:1002E0009A430B461A600A1D126803689A430B1D55
:1002F0001A60027911440A6803681A430A60184AAE
:100300000832126803689A43154B08331A601A1DA5
:10031000126803689A43124B0C331A604279102A10
:100320000ED11A1F126803681A430D4B08331A6066
:100330001A1D126803681A43094B0C331A600DE04A
:100340000749427911440A6803681A430A6005E0C4
:10035000027911440A6803689A430A6070470000F2
:10036000000401401FB50121052000F01BF9012008
:10037000ADF80C0048208DF80F0003208DF80E001A
:1003800003A9114800F042F80021084600F01EF8C9
:100390000120019000208DF808000C208DF8090044
:1003A00001208DF80A0001A8FFF792FF06208DF8C2
:1003B000000001208DF801008DF802008DF8030087
:1003C000684600F0B7F81FBD0008014030B50022B4
:1003D0008B071C0F0F2303FA04F20B4B8C1053F8FE
:1003E00024309343084C8D1044F8253023468C105C
:1003F00053F824308C07240F00FA04F42343024CF2
:100400008D1044F8253030BD080001402DE9F04141
:10041000024600250026002000230024002791F832
:1004200003C00CF00F0591F803C00CF0100CBCF1E8
:10043000000F03D091F802C04CEA050591F800C006
:10044000BCF1000F31D0146800202BE04FF0010CFC
:100450000CFA00F3B1F800C00CEA03069E4220D16A
:1004600083004FF00F0C0CFA03F7BC4305FA03FCB2
:100470004CEA040491F803C0BCF1280F06D14FF0F8
:10048000010C0CFA00FCC2F814C00AE091F803C099
:10049000BCF1480F05D14FF0010C0CFA00FCC2F87A
:1004A00010C0401C0828D1D31460B1F800C0BCF1C2
:1004B000FF0F34DD546800202EE000F1080C4FF0EF
:1004C000010808FA0CF3B1F800C00CEA03069E42DA
:1004D00021D183004FF00F0C0CFA03F7BC4305FA4F
:1004E00003FC4CEA040491F803C0BCF1280F05D1C9
:1004F00000F1080C08FA0CF8C2F8148091F803C057
:10050000BCF1480F07D100F1080C4FF0010808FAC0
:100510000CF8C2F81080401C0828CED35460BDE807
:10052000F0810246002093680B400BB1012000E0EF
:100530000020704770B5002100230F22C47804B357
:10054000154C246804F4E064C4F5E064210AC1F1A8
:100550000403CA40447804FA03F184781440214328
:1005600009010E4C0678A155047804F01F050124FA
:10057000AC4005786D11AD0005F1E025C5F80041EE
:1005800009E0047804F01F050124AC40044D06780E
:10059000761145F8264070BD0CED00E000E400E067
:1005A00080E100E029B1064A92690243044B9A6156
:1005B00004E0034A92698243014B9A61704700004C
:1005C0000010024030B500210022002400232D4DF0
:1005D0006D6805F00C0121B1042905D0082923D14B
:1005E00005E0294D056022E0274D05601FE0254DFF
:1005F0006D6805F47012234D6D6805F48034022592
:1006000005EB92421CB9214D554305600BE01D4D91
:100610006D6805F400351DB11C4D5543056002E0C1
:10062000194D5543056002E0174D056000BF00BF3E
:10063000144D6D6805F0F0010909154D6B5C0568F6
:10064000DD4045600F4D6D6805F4E061090A104D0D
:100650006B5C4568DD4085600A4D6D6805F460514E
:10066000C90A0B4D6B5C4568DD40C560054D6D6882
:1006700005F44041890B074D6B5CC568B5FBF3F58C
:10068000056130BD0010024000127A0000093D00F3
:10069000000000201000002010B500F001F810BD8F
:1006A0000CB50020019000903348006840F4803081
:1006B0003149086000BF3048006800F40030009005
:1006C0000198401C0190009818B90198B0F5A06FEE
:1006D000F1D12948006800F4003010B101200090E9
:1006E00001E0002000900098012843D123480068D1
:1006F00040F01000214908600846006820F007001B
:1007000008600846006840F0020008601A48406827
:10071000194948600846406848600846406840F407
:10072000806048600846406820F47C1048600846B5
:10073000406840F4E81048600846006840F0807067
:10074000086000BF0C48006800F000700028F9D075
:100750000948406820F0030007494860084640689F
:1007600040F00200486000BF0348406800F00C0001
:100770000828F9D10CBD0000001002400020024002
:1007800010B51348006840F00100114908600846A0
:100790004068104908400E494860084600680E4904
:1007A00008400B4908600846006820F48020086073
:1007B0000846406820F4FE0048604FF41F0088603F
:1007C000FFF76AFF4FF000600449086010BD0000A9
:1007D000001002400000FFF8FFFFF6FE08ED00E009
:1007E00021B1828942F40052828104E082894DF66F
:1007F000FF731A408281704702460020B1F5007FE6
:1008000000D100BF13880B400BB1012000E0002095
:10081000704700002DE9F04786B005460E460024DB
:10082000A24600BFA1460027B08900B100BF2F46F5
:100830002C8A4CF6FF700440F08804432C82AC896B
:100840004EF6F3100440B08831890843718908439B
:100850000443AC81AC8A4FF6FF400440B0890443A6
:10086000AC8201A8FFF7AEFE1F48874202D1DDF837
:1008700010A001E0DDF80CA0A88900F4004040B110
:100880000AEBCA0000EB0A1031684900B0FBF1F82E
:1008900007E00AEBCA0000EB0A1031688900B0FBE0
:1008A000F1F86420B8FBF0F004012009642101FB99
:1008B0001089A88900F4004040B1322000EBC90043
:1008C000B0FBF1F000F00700044308E0322000EB39
:1008D00009106421B0FBF1F000F00F0004432C81FB
:1008E00006B0BDE8F087000000380140C1F30802FF
:1008F000828070470FB4054B10B503A9044A0298D3
:1009000000F018F810BC5DF814FB0000770C00082C
:100910001400002002E008C8121F08C1002AFAD102
:1009200070477047002001E001C1121F002AFBD16F
:10093000704700002DE9FF4F8BB088460546002622
:1009400006E025280BD0DDE90D1290476D1C761CC2
:1009500028780028F5D10FB03046BDE8F08F00248C
:10096000A146A2460122AE4900E0044315F8013F2A
:10097000203B02FA03F00842F7D128782A2810D049
:100980006FF02F022878A0F13001092915D809EB62
:10099000890102EB410144F0020400EB01096D1CE6
:1009A000F0E758F8041B5FEA010903D544F400544A
:1009B000C9F1000944F002046D1C28782E2817D1D3
:1009C00015F8010F44F004042A280ED06FF02F020E
:1009D0002878A0F1300109290AD80AEB8A0102EB34
:1009E000410100EB010A6D1CF2E758F804AB6D1CE5
:1009F00028786C280FD006DC4C2817D068280DD03A
:100A00006A2814D104E0742810D07A280FD10DE0A0
:100A100044F400140AE044F4801401E044F4401467
:100A20006978814202D104F580146D1C6D1C287810
:100A3000692865D006DC00288DD0632827D064287B
:100A400006D15DE06E2808D073282AD0752877D0AB
:100A5000DDE90D129047761CE0E0C4F30250022855
:100A600009D003280DD0D8F8001004280DD00E604E
:100A700008F10408D2E0D8F80010F217C1E90062CA
:100A8000F6E7D8F800100E80F2E70E70F0E718F8DD
:100A9000041B8DF8001000208DF80100EB460120AA
:100AA00003E058F804BB4FF0FF3061074FF0000738
:100AB00001D40AE07F1C57450DDA8742FADB1BF8A8
:100AC00007100029F6D106E07F1C8742FCDB1BF8EB
:100AD00007100029F8D1DDE90D23A9EB07008146B5
:100AE000214600F0B1F83044C61904E0DDE90D12EA
:100AF0001BF8010B90477F1EF8D22146484688E03C
:100B000058F8040BC4F302514FF00A0B032900D12B
:100B100000B2042900D140B2002802DA40422D215F
:100B200002E0210505D52B218DF82410012104E0D8
:100B300006E0E10710D02021F6E708AF089113E0A6
:100B400058F8040BC4F302514FF00A0B032900D1EB
:100B500080B2042900D1C0B20021EEE75946FFF768
:100B600010FB303107F8011D0028F7D1ADEB07006D
:100B700000F1200B600702D524F4803401E04FF02F
:100B8000010ADA4502DDAAEB0B0000E000208246F4
:100B900000EB0B0108980144A9EB01000A90E00367
:100BA00006D4DDE90D2321460A9800F04DF80644ED
:100BB0004FF0000908E009A911F80900DDE90D125C
:100BC000904709F10109761C08998945F3DBE00398
:100BD0000CD5DDE90D2321460A9800F035F80644CE
:100BE00004E0DDE90D1230209047761CBAF10001D7
:100BF000AAF1010AF5DC05E0DDE90D1217F8010B99
:100C00009047761CBBF10001ABF1010BF4DC0A98B4
:100C10002146DDE90D2300F005F806446D1C97E63A
:100C2000092801002DE9F041044600251E4617461B
:100C3000880404D405E039462020B0476D1C641EAA
:100C4000F9D52846BDE8F0812DE9F041044600259C
:100C50001E469046C80301D5302700E020278804AF
:100C600004D505E041463846B0476D1C641EF9D5F1
:100C70002846BDE8F08170B504460D46E0B2FFF7A6
:100C8000EBFA204670BD0000FFF7A4FAFFF76AFBFD
:100C900001211548FFF745FC05465C2113A0FFF72D
:100CA00065FA28B15C2111A0FFF760FA401C00E052
:100CB0000EA004462B46352221460FA0FFF71AFE50
:100CC0005C210AA0FFF752FA28B15C2107A0FFF7C8
:100CD0004DFA401C00E005A00446372221460AA038
:100CE000FFF708FE00BFFEE700080140557365727C
:100CF0005C6D61696E2E63005B253230733A25644A
:100D00005D25640D0A0000005B253230733A2564CE
:100D10005D6F706B6A0D0A00380D0008000000203E
:100D20001800000014090008500D000818000020E9
:100D30000004000024090008000000000102030470
:100D40000102030406070809020406080000000067
:0400000508000131BD
:00000001FF
