:020000040800F2
:10000000480400204901000851010008530100087C
:1000100055010008570100085901000800000000C0
:100020000000000000000000000000005B0100086C
:100030005D010008000000005F0100086101000888
:100040006301000863010008630100086301000800
:1000500063010008630100086301000863010008F0
:1000600063010008630100086301000863010008E0
:1000700063010008630100086301000863010008D0
:1000800063010008630100086301000863010008C0
:1000900063010008630100086301000863010008B0
:1000A00063010008630100086301000863010008A0
:1000B0006301000863010008630100086301000890
:1000C0006301000863010008630100086301000880
:1000D0006301000863010008630100086301000870
:1000E0006301000863010008630100086301000860
:1000F0006301000863010008630100086301000850
:10010000630100086301000863010008630100083F
:10011000630100086301000865130008630100081B
:10012000630100086301000863010008630100081F
:10013000DFF810D000F050FB004800477D20000899
:10014000AFF3008048040020064880470648004777
:10015000FEE7FEE7FEE7FEE7FEE7FEE7FEE7FEE777
:10016000FEE7FEE705130008310100080022CBB2CC
:100170000178994200D10246401C0029F8D110466E
:100180007047F0B480EA0102D40F4200B2EB410F95
:1001900002D20246084611464A0042D0C30DDDB2E3
:1001A000C1F3C752AD1A202D35DAC1F3160141F45F
:1001B000000204B15242C5F1200602FA06F12A41BA
:1001C0001044B3EBD05F23D0C4B1012DA0EBC350DA
:1001D00009DCF0BC4FF0004202EAC352DBB200F58A
:1001E000000000F013B9400000F1807000EBC35034
:1001F000A0F1807040EAD170490009E0490841EA65
:10020000C071A0EBC35000F50000400800EBC350E4
:10021000F0BC00F0F2B86142012202EB4101001B88
:10022000F6E7F0BC704781F00041AAE780F000409B
:10023000A7E780EA010210B502F00043400022D097
:100240004A001FD0010E01EB1261C0F35600C2F349
:10025000560240F4000042F40002A0FB0220000419
:100260007F39140400D0401C50EA124001D44000F1
:10027000491EC2B20C0604EBD010401C4008802A74
:1002800002D003E0002010BD20F00100002900DAB8
:100290000020184310BD30B480EA010202F000458E
:1002A00030F0004221F0004013D090B1C30DD40DC6
:1002B000C2F31601C0F31600E41A41F4000140F441
:1002C00000027D34914201D3641C00E04900002CFF
:1002D00002DA30BC002070474FF400000023914246
:1002E00001D3891A034340084FEA4101F7D151B1C4
:1002F000914202D14FF0004105E002D24FF00101DE
:1003000001E06FF0010103EBC450284430BC00F061
:1003100074B896230022114600F078B800F000422D
:1003200030F000400AD0C10D01F56071C0F3160035
:1003300042EA0151C20840071143704700200146BC
:1003400070470000002801DBC0F10040002901DBFC
:10035000C1F1004181427047002801DBC0F100403B
:10036000002901DBC1F100418842704730B50B46DE
:10037000014600202022012409E021FA02F59D42D5
:1003800005D303FA02F5491B04FA02F52844151EA9
:10039000A2F10102F1DC30BD2DE9F05F054600203D
:1003A00092469B4688460646814640241BE02846E6
:1003B00041464746224600F030FA53465A46C01A94
:1003C000914110D311461846224600F017FA2D1A13
:1003D00067EB01084F4622460120002100F00EFA8B
:1003E00017EB00094E41201EA4F10104DFDC484652
:1003F00031462A464346BDE8F09F0029A8BF704712
:10040000401C490008BF20F00100704710B4B0FA4A
:1004100080FC00FA0CF050EA010404BF10BC7047E5
:1004200049B1CCF1200421FA04F411FA0CF118BFFF
:10043000012121430843A3EB0C01CB1D4FEA0061CE
:100440004FEA102042BF002010BC704700EBC350A1
:1004500010440029A4BF10BC7047401C490008BFCD
:1004600020F0010010BC70472DE9FE4F804681EA64
:100470000300C00F0C46009021F0004123F000451E
:10048000B8EB0200A94105D24046214690461C46E1
:100490000B46024623F00040104347D0270DC7F318
:1004A0000A00C3F30A510290401A019040286BDA07
:1004B000C3F3130040F4801B0098924620B1002340
:1004C000D2EB030A63EB0B0B01985946C0F14002D3
:1004D000504600F093F906460D4650465946019A9B
:1004E00000F0ABF910EB08006141002487EA1152DB
:1004F00084EAE7731A4340D0009A62B3019A012A52
:100500004FEA075215DC001B61EB02014FF000427D
:1005100002EA0752CDE90042001C41F58011324643
:100520002B4600F0ABF903B0BDE8F08F4046214602
:10053000F9E7001B61EB0201001C41F58013001874
:100540005B412018A2F5001747EB030140EAD57084
:10055000B6196D4111E06D084FEA360645EAC075DF
:100560004FEA0752001B61EB0201001C41F58011AC
:1005700049084FEA30000019514132462B4603B07A
:10058000BDE8F04F00F06BB9009801224000002355
:10059000D0EB020263EBE073009821464FEAE0746F
:1005A000B8EB000061EB0401E9E783F000435BE78F
:1005B00081F0004158E72DE9FE4F81EA030404F081
:1005C000004421F0004100944FF0000B23F0004361
:1005D00050EA01045ED052EA03045BD0C3F30A542C
:1005E000C1F30A552C44A4F2F3340194A0FB025445
:1005F000C1F3130141F48011C3F3130343F48013D7
:1006000001FB024400FB034E840A970A44EA81542A
:1006100047EA8357A4FB076802958D0A05FB078507
:100620004FEA932C04FB0C542705029D4FEA065811
:1006300047EA1637B5EB08056EEB070C870E920EEE
:1006400047EA811742EA8312A7FB0201B6EB0B01CE
:1006500064EB00042B0D43EA0C335E1844EB1C5092
:10066000DA465146E7FB0201C5F313044FEA0B33A8
:1006700043EA14534FEA0432019C43EA0603A4F10F
:100680000C040294009CCDE900B400F0F7F803B02C
:10069000BDE8F08F00200146F9E72DE9F04D81EA31
:1006A000030404F0004B21F0004514464FF0000A0B
:1006B00023F0004150EA050220D054EA01021DD087
:1006C000C5F30A570246C5F31303C1F31300C1F380
:1006D0000A5640F4801543F48013A7EB0608101B5C
:1006E000D64608F2FD3873EB050002D308F1010885
:1006F00001E092185B41B8F1000F03DA00200146D7
:10070000BDE8F08D00204FF48011064684460EE0CF
:10071000171B73EB050705D3121B63EB0503064399
:100720004CEA010C49084FEA300092185B4150EA4C
:100730000107EDD152EA030012D082EA040083EAF5
:100740000501084305D0101BAB4106D2012200234E
:1007500006E000224FF0004302E06FF00102531068
:100760001AEB06004CEB085110EB0A0041EB0B01B1
:10077000BDE8F04D00F073B8C1F30A52C1F31301A4
:1007800040F2FF3341F480119A4202DA0020014620
:10079000704740F233439A42A2F2334202DC5242A3
:1007A00000F03BB800F02AB830B5041E71F1000427
:1007B00004DB4FF00044404264EB0101141E73F16E
:1007C000000405DB1C464FF00043524263EB040378
:1007D000994208BF904230BD064C074D06E0E068E4
:1007E00040F0010394E8070098471034AC42F6D378
:1007F000FFF7A2FC90200008B0200008202A04DBAC
:10080000203A00FA02F1002070479140C2F1200323
:1008100020FA03F3194390407047202A04DB203A62
:1008200021FA02F00021704721FA02F3D040C2F110
:1008300020029140084319467047202A06DBCB1757
:10084000203A41FA02F043EAE07306E041FA02F38B
:10085000D040C2F12002914008431946704710B5BC
:10086000141E73F1000408DA401C41F100019218D3
:100870005B411A4301D120F0010010BD2DE9F04D7C
:1008800092469B4611B1B1FA81F202E0B0FA80F2D1
:1008900020329046FFF7B2FF04460F4640EA0A00B6
:1008A00041EA0B0153465A46084313D0114653EA16
:1008B000010019D0C8F140025046FFF7AEFF0546CF
:1008C0000E46504659464246FFF798FF084305D06A
:1008D000012004E020463946BDE8F08D00200543A4
:1008E00046EAE0762C4337430A986305E40AA0EB16
:1008F00008000022FD0A44EA47540A3002D50020CD
:100900000146E9E7010510196941DDE908450019CB
:100910006941BDE8F04DA2E721B1826842F00102D1
:10092000826003E0826822F001028260704721B198
:10093000826842F48072826003E0826822F48072EE
:1009400082607047014600208A6802F004020AB102
:10095000012000E000207047014600208A6802F074
:1009600008020AB1012000E00020704730B50246BD
:100970000020002350680F4C20400D790C6844EA99
:1009800005242043506090680B4C2040D1E902546C
:100990002C434D7944EA450420439060D06A20F40A
:1009A00070000C7C641EE4B2234340EA0350D06222
:1009B00030BD0000FFFEF0FFFDF7F1FFF0B504468B
:1009C0000D4600200021092D11DDE068A5F10A0681
:1009D00006EB4607072606FA07F18843A5F10A0643
:1009E00006EB460603FA06F10843E0600CE02069D6
:1009F00005EB4507072606FA07F1884305EB450690
:100A000003FA06F108432061072A0FDA606B561ECD
:100A100006EB86071F2606FA07F18843561E06EBEB
:100A2000860605FA06F10843606322E00D2A0FDA14
:100A3000206BD61F06EB86071F2606FA07F18843B0
:100A4000D61F06EB860605FA06F10843206310E080
:100A5000E06AA2F10D0606EB86071F2606FA07F1EB
:100A60008843A2F10D0606EB860605FA06F1084357
:100A7000E062F0BD816841F008018160704721B1FA
:100A8000826842F4A002826003E0826822F4A0023D
:100A900082607047816841F004018160704710B541
:100AA00000F0B8F910BD21B1026842F00102026005
:100AB00004E002684FF6FE731A400260704710B5FA
:100AC0000022026847F6F0739A430C6A8B6823434E
:100AD0000C6923434C6923438C692343CC6923432A
:100AE0004C6A23438C6A23431A430260CB684360F9
:100AF0000B6883604B68C36010BD10B500F004F84C
:100B000000F06CF810BD000000B587B001214FF473
:100B1000047000F0F5FA0520ADF8180000208DF8FB
:100B20001B0006A9154800F033FA4FF4004000F00E
:100B3000BBFA0020019001208DF808008DF8090013
:100B40004FF4602003900020049002208DF81400E0
:100B500001A90B48FFF70AFF01231A460A2108489A
:100B6000FFF72CFF012302220C210548FFF726FF87
:100B700001210348FFF7DBFE07B000BD0010014074
:100B80000024014070B504460E46154611484461E4
:100B9000C56001210F480830FFF785FF01210E488D
:100BA000FFF7BAFE0C48FFF765FF00BF0A48FFF7E2
:100BB000D3FE0028FAD10848FFF76CFF00BF0648B3
:100BC000FFF7C0FE0028FAD101210348FFF757FFC5
:100BD00070BD0000000002400024014000B58BB051
:100BE0000121084600F06CFA0C48009000200190AA
:100BF00002900390049080200590400006908000B1
:100C00000790202008900002099000200A90694671
:100C10000348FFF754FF0BB000BD00004C24014017
:100C20000800024010B5044603E04FF47A7000F06B
:100C300005F8201EA4F10104F7D110BD0146144AA5
:100C4000127801FB02F0B0F1807F01D36FF07F409A
:100C50004FF0E022506100224FF0E0239A611A46E3
:100C6000126942F001021A6100BF4FF0E0221269DE
:100C700002F48032002AF8D04FF0E022126922F00C
:100C800001024FF0E0231A6100229A6170470000D0
:100C90003000002010B55C211AA0FFF767FA28B1D8
:100CA0005C2118A0FFF762FA401C00E015A0044682
:100CB0000B2221461BA000F0D3FC6FF0040000F0D3
:100CC0000DFB09201F4908705C210EA0FFF74EFAAA
:100CD00028B15C210BA0FFF749FA401C00E009A0F5
:100CE0000446184803781422214617A000F0B8FCE7
:100CF0004FF0E020006920F001004FF0E021086192
:100D000010BD00004472697665725C537973746932
:100D1000636B5C4472695F5379737469636B2E63B0
:100D2000000000005B253230733A25645D4472692F
:100D30005F5379737469636B5F496E69740A0D0A56
:100D400000000000300000205B253230733A25643B
:100D50005D75735F636F756E74203D2025640A0DA9
:100D60000A00000000B589B00121082000F0B8F9A0
:100D70000121042000F0C4F90220ADF82000182061
:100D80008DF8230003208DF8220008A9164800F0F2
:100D9000FFF86320ADF8180041F61F40ADF81400CD
:100DA0000020ADF81A00ADF8160005A90F4800F0B4
:100DB0007BFB6020ADF804000120ADF80600322076
:100DC000ADF80A000020ADF80C0001A9074800F0BA
:100DD00009FB0821054800F057FB0121034800F0FA
:100DE000D5FA09B000BD000000080140000C004029
:100DF00010B504462146024800F053FB10BD000028
:100E0000000C004010B50121014800F0CEFA10BDE1
:100E1000000C004000B585B0012144F2040000F050
:100E20006FF94FF40070ADF8100018208DF8130022
:100E300003208DF8120004A9134800F0A9F84FF41C
:100E40008060ADF8100004208DF8130004A90E484E
:100E500000F09EF84FF4E13000900020ADF80C0057
:100E60000C20ADF80A000020ADF80800ADF806002F
:100E7000ADF804006946054800F082FB01210348F3
:100E800000F064FB05B000BD0008014000380140DF
:100E900010B5044600BF8021084800F063FB00281D
:100EA000F9D02146054800F0D7FB00BF4021034898
:100EB00000F058FB0028F9D010BD000000380140B8
:100EC0002DE9F04104462B480078082825DA2A4805
:100ED0002A49097820F8114028480078401C274901
:100EE000087024480078401C2249087008460078A1
:100EF000FFF70FFA07462249FFF79BF905462148FD
:100F00000068FFF706FA07461F49FFF792F9064601
:100F10002946FFF7C0F9BDE8F0811748174909785D
:100F200030F8110017490968081A16490860124874
:100F30001249097820F811401248006820441149EC
:100F400008600E480078401C0C490870084600787C
:100F5000082801DB002008700A480068FFF7D9F96B
:100F600006460949FFF765F905460849FFF793F971
:100F7000D1E700001D000020380000201C000020E8
:100F800000F07F45180000203333534000F0FF4647
:100F90002DE9F04102460025002600200023002410
:100FA000002791F803C00CF00F0591F803C00CF076
:100FB000100CBCF1000F03D091F802C04CEA0505FB
:100FC00091F800C0BCF1000F31D0146800202BE074
:100FD0004FF0010C0CFA00F3B1F800C00CEA030664
:100FE0009E4220D183004FF00F0C0CFA03F7BC4354
:100FF00005FA03FC4CEA040491F803C0BCF1280F85
:1010000006D14FF0010C0CFA00FCC2F814C00AE043
:1010100091F803C0BCF1480F05D14FF0010C0CFA58
:1010200000FCC2F810C0401C0828D1D31460B1F8ED
:1010300000C0BCF1FF0F34DD546800202EE000F149
:10104000080C4FF0010808FA0CF3B1F800C00CEAE4
:1010500003069E4221D183004FF00F0C0CFA03F7D8
:10106000BC4305FA03FC4CEA040491F803C0BCF14C
:10107000280F05D100F1080C08FA0CF8C2F814800A
:1010800091F803C0BCF1480F07D100F1080C4FF0F4
:10109000010808FA0CF8C2F81080401C0828CED3CA
:1010A0005460BDE8F081000001460020034A50680A
:1010B00020F4404008435060704700000010024098
:1010C00029B1064A52690243044B5A6104E0034ABB
:1010D00052698243014B5A61704700000010024080
:1010E00029B1064AD2690243044BDA6104E0034A9B
:1010F000D2698243014BDA61704700000010024060
:1011000029B1064A92690243044B9A6104E0034AFA
:1011100092698243014B9A617047000000100240BF
:1011200030B500210022002400232D4D6D6805F00C
:101130000C0121B1042905D0082923D105E0294D4E
:10114000056022E0274D05601FE0254D6D6805F420
:101150007012234D6D6805F48034022505EB924230
:101160001CB9214D554305600BE01D4D6D6805F41C
:1011700000351DB11C4D5543056002E0194D554326
:10118000056002E0174D056000BF00BF144D6D689B
:1011900005F0F0010909154D6B5C0568DD404560FF
:1011A0000F4D6D6805F4E061090A104D6B5C4568F0
:1011B000DD4085600A4D6D6805F46051C90A0B4D2C
:1011C0006B5C4568DD40C560054D6D6805F44041C8
:1011D000890B074D6B5CC568B5FBF3F5056130BD48
:1011E0000010024000127A0000093D0000000020BB
:1011F0001000002010B500F001F810BD0CB5002063
:10120000019000903348006840F480303149086014
:1012100000BF3048006800F4003000900198401C86
:101220000190009818B90198B0F5A06FF1D1294844
:10123000006800F4003010B10120009001E00020AF
:1012400000900098012843D12348006840F0100026
:10125000214908600846006820F007000860084639
:10126000006840F0020008601A4840681949486068
:101270000846406848600846406840F4806048601E
:101280000846406820F47C1048600846406840F4F6
:10129000E81048600846006840F08070086000BFB1
:1012A0000C48006800F000700028F9D00948406838
:1012B00020F00300074948600846406840F00200FB
:1012C000486000BF0348406800F00C000828F9D1CE
:1012D0000CBD00000010024000200240042808D18C
:1012E0004FF0E021096941F004014FF0E022116163
:1012F00007E04FF0E021096921F004014FF0E022FE
:101300001161704710B51348006840F001001149A1
:10131000086008464068104908400E494860084681
:1013200000680E4908400B4908600846006820F430
:10133000802008600846406820F4FE0048604FF4B2
:101340001F008860FFF756FF4FF0006004490860F7
:1013500010BD0000001002400000FFF8FFFFF6FE85
:1013600008ED00E010B50121064800F02AF840B170
:101370000121044800F016F803480068401C0249A7
:10138000086010BD001000402C00002021B1028830
:1013900042F08002028004E002884FF67F731A4018
:1013A00002807047CA430282704721B1028842F02E
:1013B0000102028004E002884FF6FE731A400280A8
:1013C000704730B50246002000230024158A05EA44
:1013D0000103958905EA010413B10CB1012000E075
:1013E000002030BD70B5002400220023058C4FF68C
:1013F000EF7635400584028C8388048B48F6FF75B0
:101400002C404FF6FF452C400D884FF6FF7606EA3C
:1014100005252C434FF6DF752A400D8906EA051590
:101420002A434D8806EA05152A43154DA84202D0E5
:10143000144DA8421DD14FF67F752A404D894FF6B5
:10144000FF7606EA05152A434FF6BF752A408D88B8
:1014500006EA05152A434FF6FF352B404FF2FF757C
:101460002B408D8906EA85052B43CD8906EA850543
:101470002B4383800483CD880587028470BD0000E0
:10148000002C0140003401400A460021018B4FF23C
:10149000FF7319404FF6FF7303EA022319430183D8
:1014A0007047018770470000002202881D4B984258
:1014B0000ED01D4B98420BD0B0F1804F08D01B4B83
:1014C000984205D01A4B984202D01A4B984204D148
:1014D0004FF68F731A404B881A43174B984207D028
:1014E000164B984204D04FF6FF431A40CB881A435C
:1014F00002808B8883850B8803850A4B98420BD02A
:10150000094B984208D00E4B984205D00D4B98429B
:1015100002D00D4B984201D10B7A038601238382BE
:1015200070470000002C01400034014000040040DE
:1015300000080040000C0040001000400014004073
:1015400000400140004401400048014021B182892F
:1015500042F40052828104E082894DF6FF731A4002
:101560008281704702460020B1F5007F00D100BFA4
:1015700013880B400BB1012000E0002070470000F1
:101580002DE9F04786B005460E460024A24600BF6E
:10159000A1460027B08900B100BF2F462C8A4CF627
:1015A000FF700440F08804432C82AC894EF6F3109F
:1015B0000440B08831890843718908430443AC81F1
:1015C000AC8A4FF6FF400440B0890443AC8201A8C6
:1015D000FFF7A6FD1F48874202D1DDF810A001E009
:1015E000DDF80CA0A88900F4004040B10AEBCA0065
:1015F00000EB0A1031684900B0FBF1F807E00AEB94
:10160000CA0000EB0A1031688900B0FBF1F86420D1
:10161000B8FBF0F004012009642101FB1089A889BE
:1016200000F4004040B1322000EBC900B0FBF1F003
:1016300000F00700044308E0322000EB09106421A9
:10164000B0FBF1F000F00F0004432C8106B0BDE8C0
:10165000F087000000380140C1F308028280704723
:101660000FB4054B10B503A9044A029800F0DAF84C
:1016700010BC5DF814FB00006D2000083400002051
:1016800002E008C8121F08C1002AFAD1704770474B
:10169000002001E001C1121F002AFBD170470000A9
:1016A0002DE9FF5F82B00021DDE90430020DDDF895
:1016B00040B0034318D044F61050A2F2FF32424328
:1016C0001514119801281FD0A5EB0B00401C5FEAF0
:1016D000000A4FF000064E4FDFF83891B0465046F2
:1016E00015D5CAF1000413E0119801244AA301287A
:1016F00001D16FEA0B010298119AC0E90031C0E9EB
:10170000024206B0BDE8F09FCBF10000DFE70446DF
:101710000021404A491842EB0450CDE9001012E084
:10172000E00707D032463B4640464946FEF743FFB6
:101730008046894632463B4610461946FEF73BFF37
:1017400006460F466410002CEAD1DDE90401DDE90C
:101750000023BAF1000F06DAFEF72DFF42464B4692
:10176000FEF729FF05E0FEF798FF42464B46FEF7DD
:1017700094FF04460E460022284BFFF715F803D8C5
:101780004FF0FF30014607E00022254B204631464E
:10179000FEF76AFEFEF7F0FF102409E0002C0ADBDA
:1017A0000A220023FEF7F8FD039B30321A55641E0F
:1017B00050EA0102F2D1641C039AC4F111031444EB
:1017C000119A012A03D0012208430DD10AE00843EF
:1017D00004D000204FF0110B119072E7A3EB0B0522
:1017E0006D1E0DE05B4504DD4FF0000205F10105C3
:1017F00004E003DA4FF00002A5F10105002AECD065
:1018000002981199C0E90231C0E9004579E700006A
:10181000000014400000F03F300000000000F043E2
:101820000000E03F2DE9FF4F95B09A4688460646F6
:101830000025EEE1252877D100242746F94A012129
:10184000039400E0044316F8013F203B01FA03F043
:101850001042F7D130782A2811D06FF02F0330785A
:10186000A0F13002092A16D8039A44F0020402EBD0
:10187000820203EB42021044761C0390EFE758F813
:10188000042B0392002A03DA504244F400540390DC
:1018900044F00204761C30782E2816D116F8010F79
:1018A00044F004042A280DD06FF02F023078A0F104
:1018B0003003092B09D807EB870302EB4303C71852
:1018C000761CF3E758F8047B761C30786C280FD030
:1018D00006DC4C2817D068280DD06A2814D104E003
:1018E000742810D07A280FD10DE044F400140AE0D7
:1018F00044F4801401E044F440147278824202D12E
:1019000004F58014761C761C307866280BD013DC26
:10191000582877D009DC002875D04528F6D046280D
:10192000F4D047281AD193E118E0632835D0642811
:1019300079D0652812D18BE1702873D008DC672834
:10194000F1D069286FD06E280DD06F2806D1ACE099
:1019500073282CD0752874D0782853D05246179904
:1019600090476D1C54E1C4F30250022809D00328AB
:101970000DD0D8F8001004280DD00D6008F104082F
:1019800046E1D8F80010EA17C1E90052F6E7D8F8A6
:1019900000100D80F2E70D70F0E718F8041B8DF8C9
:1019A000001000208DF80100EB46012003E058F8FC
:1019B00004BB4FF0FF3061074FF0000102D40DE08F
:1019C00009F101018946B9420FDA8145F8DB1BF8BC
:1019D00009100029F4D108E009F10101894681428A
:1019E000FADB1BF809100029F6D103985346A0EB47
:1019F000090721463846179A00F080FA284400EB80
:101A0000090507E044E008E10DE01BF8010B524630
:101A100017999047B9F10109F7D253462146384644
:101A2000179AF2E039E00A21C4F302524FF0000B9A
:101A30000091022A06D058F8040BC117032A09D0D6
:101A40000AE023E008F1070020F00702F2E80201B3
:101A5000904605E000B2C117042A01D140B2C11777
:101A6000002906DA0A460021404261EB02012D22DC
:101A700002E0220504D52B228DF80420012203E088
:101A8000E20701D02022F7E7914657E00A2100E063
:101A900010214FF0000B00910BE010214FF0000BD4
:101AA00044F004040827009103E008204FF0000BE5
:101AB0000090C4F30252022A05D058F8040B00210A
:101AC000032A08D008E008F1070020F00702F2E836
:101AD0000201904603E080B2042A00D1C0B24FF068
:101AE000000922072AD53278702A07D0DDF800C015
:101AF0008CF0100C5CEA0B0C05D00EE040228DF847
:101B00000420012208E050EA010306D030238DF8BA
:101B100004308DF8052002229146009B83F00803D3
:101B200053EA0B030AD150EA010201D1620705D53D
:101B300030228DF804204FF001097F1E3278582A98
:101B400004D039A20C920CAA02920BE03BA2F9E756
:101B50005B46009AFEF720FC0C9B9B5C029A521E8F
:101B60000292137050EA0102F2D1029804A9081AF5
:101B700000F1200B600702D524F4803400E0012737
:101B80005F4502DDA7EB0B0000E0002000EB0B013E
:101B9000009003984944401A0390E00306D453464A
:101BA0002146179A039800F0A9F90544002706E09A
:101BB00001A85246C05D179990476D1C7F1C4F4588
:101BC000F6DBE0030CD553462146179A039800F044
:101BD00095F9054404E030205246179990476D1C52
:101BE0000099481E00900029F5DC08E0029802994F
:101BF00052460078491C0291179990476D1CBBF121
:101C00000001ABF1010BF1DC5BE100F065F905448B
:101C1000761C307800287FF40DAE19B02846BDE858
:101C2000F08F000009280100303132333435363767
:101C30003839616263646566000000003031323318
:101C400034353637383941424344454600000000B8
:101C5000600700D4062708F1070020F00700F0E82D
:101C60000223804603F0004C5FEA0C0001D097A0ED
:101C700009E0200501D596A005E0E00701D095A078
:101C800001E0AFF24C001390307823F00043652858
:101C90000CD006DC452809D046281DD047287FD126
:101CA0003BE0662818D067287AD136E00021112F52
:101CB00001DB112000E0781CCDE9000104A90CA88B
:101CC000FFF7EEFCDDE90D010C9A4FF0000B07F178
:101CD0000109109200914EE04FF000400097CDE9CD
:101CE000011004A90CA8FFF7DBFCDDE90D020C9B39
:101CF0000F994FF0000B91461093009211B9791C87
:101D000000EB0109B7EB090003D4C0F1FF3B07F179
:101D10000109A9EB0700019042E0012F00DA012739
:101D20000021112F01DD112000E03846CDE900012E
:101D300004A90CA8FFF7B4FCDDE90D010C9A009191
:101D40004FF0000BB946109221070FD4009A4A4574
:101D500003DA914601E0A9F10109B9F1010F05DDAE
:101D6000109AA9F10101515C3029F4D0B84202DA8D
:101D700010F1040F03DA0121CDE9011010E0002871
:101D800003DC8344A9EB000102E0411C494500DD6E
:101D90008946A0EB0B00401C01904FF000400290E0
:101DA000200705D40198484502DB4FF0FF30019031
:101DB00000208DF84B0002980DF14B07B0F1004F59
:101DC00025D002200C902B200D90029800280CDAD0
:101DD000404202902D200D9007E00A210298FEF764
:101DE000C5FA3031029007F8011D0C99481E0C907D
:101DF0000029F2DC02980028EFD1791E0D980870B6
:101E0000307800F0200040F0450007F8020D11A8DE
:101E1000C01BC01D02901398007800B1012000EB98
:101E20000901019801EBE071029801440398401AFE
:101E3000401E0390E00306D453462146179A0398A8
:101E400000F05CF805441398007818B152461799D1
:101E500090476D1CE00323D553462146179A0398FB
:101E600000F04CF805441BE0BBF1000F07DB0098C5
:101E7000584504DD1098179910F80B0001E01799E8
:101E800030205246904701980BF1010B401E05F19E
:101E90000105019004D12E205246179990476D1CE0
:101EA000B9F10001A9F10109DEDC05E017F8010B29
:101EB0005246179990476D1C0299481E02900029BE
:101EC000F4DC53462146179A03989EE62D00000045
:101ED0002B000000200000002DE9F0410446002501
:101EE0001E461746880404D405E039462020B04732
:101EF0006D1C641EF9D52846BDE8F0812DE9F0413E
:101F0000044600251E469046C80301D5302700E050
:101F10002027880404D505E041463846B0476D1CAB
:101F2000641EF9D52846BDE8F08110B5FEF7B7FD6F
:101F3000FEF7B0FEFEF716FFFEF764FFFEF7DDFDCD
:101F40006420FEF755FFFEF7D8FD10BD2DE9FF41D7
:101F5000022234493448FEF715FE33494888FEF71B
:101F6000AFFF324908604FF07F5130480068FEF7FC
:101F7000E9F903D200202E49086019E02D492B48C9
:101F80000068FEF7DFF910D24FF07F512748006854
:101F9000FEF749F905462849FEF77DF90446274929
:101FA000FEF747F92249086002E02448204908600A
:101FB00022491F480068FEF7CFF902D21F481C498A
:101FC000086000211A480068FEF7BCF902D2002020
:101FD000174908606420FEF725FE15480068FEF7E3
:101FE0009DF904460D4611480068FEF797F906462C
:101FF0000F465C2112A0FEF7B9F828B15C2110A0B1
:10200000FEF7B4F8401C00E00DA080464F22414688
:102010000EA0CDE90067CDE90245FFF721FBBDE841
:10202000FF8100004C240140140000202400002007
:1020300028000020333333406666A63F0000C842C4
:10204000557365725C6170702E6300005B253230E1
:10205000733A25645D7631323D252E32662C6475E7
:1020600074793D252E32660A0D0A000070B50446CB
:102070000D46E0B2FEF70CFF204670BDFFF755FF9E
:1020800004E0FFF763FF6420FEF7CCFDF9E70000F2
:10209000B020000800000020380000008016000872
:1020A000E820000838000020100400009016000806
:1020B00000000000010203040102030406070809EE
:1020C00002040608000000000000000000000000FC
:1020D0000000000000000000000000000000000000
:0820E0000000000000000000F8
:0400000508000131BD
:00000001FF
