:020000040800F2
:1000000008040020490100080D050008B503000898
:1000100009050008910100088106000800000000A1
:100020000000000000000000000000003105000892
:1000300095010008000000000F0500081D060008DB
:100040006301000863010008630100086301000800
:1000500063010008630100086301000863010008F0
:1000600063010008630100086301000863010008E0
:1000700063010008630100086301000863010008D0
:1000800063010008630100086301000863010008C0
:1000900063010008630100086301000863010008B0
:1000A00063010008630100086301000863010008A0
:1000B0006301000863010008630100086301000890
:1000C0006301000863010008630100086301000880
:1000D0006301000863010008630100086301000870
:1000E0006301000863010008630100086301000860
:1000F0006301000863010008630100086301000850
:10010000630100086301000863010008630100083F
:10011000630100086301000863010008630100082F
:10012000630100086301000863010008630100081F
:10013000DFF810D000F01AF800480047A5060008C4
:10014000AFF30080080400200648804706480047B7
:10015000FEE7FEE7FEE7FEE7FEE7FEE7FEE7FEE777
:10016000FEE7FEE72106000831010008064C074DB6
:1001700006E0E06840F0010394E807009847103477
:10018000AC42F6D3FFF7D8FFC8060008E80600081F
:1001900000BFFEE7704710B500F074F910BD2DE9FF
:1001A000F04105460E46174600F082F9A02000F007
:1001B00003F900F037F98046B8F1000F10D1E8B22A
:1001C00000F0FAF800F02EF9002405E0305D00F0B0
:1001D000F3F800F027F9641CBC42F7DB00F07EF96D
:1001E000052000F003F8BDE8F08100000146114A47
:1001F00012884A434FF0E0235A6100229A611A465E
:10020000126942F001021A6102E04FF0E022106927
:1002100000F001021AB100F48032002AF5D04FF04C
:10022000E022126922F001024FF0E0231A6100225D
:100230009A617047020000200146114A12784A4331
:100240004FF0E0235A6100229A611A46126942F087
:1002500001021A6102E04FF0E022106900F0010291
:100260001AB100F48032002AF5D04FF0E022126972
:1002700022F001024FF0E0231A6100229A617047D8
:10028000000000202DE9F041024600250026002054
:1002900000230024002791F803C00CF00F0591F80B
:1002A00003C00CF0100CBCF1000F03D091F802C099
:1002B0004CEA050591F800C0BCF1000F31D014687C
:1002C00000202BE04FF0010C0CFA00F3B1F800C055
:1002D0000CEA03069E4220D183004FF00F0C0CFA6B
:1002E00003F7BC4305FA03FC4CEA040491F803C08D
:1002F000BCF1280F06D14FF0010C0CFA00FCC2F83B
:1003000014C00AE091F803C0BCF1480F05D14FF0CA
:10031000010C0CFA00FCC2F810C0401C0828D1D314
:100320001460B1F800C0BCF1FF0F34DD5468002048
:100330002EE000F1080C4FF0010808FA0CF3B1F8B8
:1003400000C00CEA03069E4221D183004FF00F0C3F
:100350000CFA03F7BC4305FA03FC4CEA040491F8D9
:1003600003C0BCF1280F05D100F1080C08FA0CF805
:10037000C2F8148091F803C0BCF1480F07D100F116
:10038000080C4FF0010808FA0CF8C2F81080401C65
:100390000828CED35460BDE8F0810246002093685F
:1003A0000B400BB1012000E0002070474161704715
:1003B0000161704700BFFEE770B5044600252BE0E1
:1003C00080211748FFF7F2FF40211548FFF7EEFFA5
:1003D0000A20FFF731FF04F0800020B1802110488F
:1003E000FFF7E6FF03E080210D48FFF7DFFF0A205B
:1003F000FFF722FF40210A48FFF7D8FF0A20FFF746
:100400001BFF40210648FFF7D1FF0A20FFF714FF2A
:100410006006040E681CC5B2082DD1DB70BD00005B
:10042000000C014010B580211548FFF7C1FF0A20DC
:10043000FFF702FF40211248FFF7B8FF0A20FFF73D
:10044000FBFE40210E48FFF7B3FF0A20FFF7F4FE42
:1004500080210B48FFF7A1FF40B140210848FFF77A
:10046000A5FF0A20FFF7E8FE012010BD4021044847
:10047000FFF79CFF0A20FFF7DFFE0020F5E70000F2
:10048000000C014008B50121082000F041F81420BB
:100490008DF80300C020ADF8000003208DF80200A5
:1004A00069460248FFF7EEFE08BD0000000C01405F
:1004B00010B580210848FFF77BFF40210648FFF771
:1004C00077FF0A20FFF7B8FE80210348FFF76EFF91
:1004D0000A20FFF7B1FE10BD000C014010B58021CD
:1004E0000848FFF763FF40210648FFF761FF0A2035
:1004F000FFF7A2FE80210348FFF75AFF0A20FFF70B
:100500009BFE10BD000C014000BFFEE77047704726
:1005100029B1064A92690243044B9A6104E0034AF6
:1005200092698243014B9A617047000000100240BB
:10053000704710B500F002F810BD00000CB50020A7
:10054000019000903348006840F4803031490860E1
:1005500000BF3048006800F4003000900198401C53
:100560000190009818B90198B0F5A06FF1D1294811
:10057000006800F4003010B10120009001E000207C
:1005800000900098012843D12348006840F01000F3
:10059000214908600846006820F00300086008460A
:1005A000006840F0020008601A4840681949486035
:1005B0000846406848600846406840F480604860EB
:1005C0000846406820F47C1048600846406840F4C3
:1005D000E81048600846006840F08070086000BF7E
:1005E0000C48006800F000700028F9D00948406805
:1005F00020F00300074948600846406840F00200C8
:10060000486000BF0348406800F00C000828F9D19A
:100610000CBD0000001002400020024070470000A6
:1006200010B51348006840F0010011490860084601
:100630004068104908400E494860084600680E4965
:1006400008400B4908600846006820F480200860D4
:100650000846406820F4FE0048604FF41F008860A0
:10066000FFF767FF4FF000600449086010BD00000D
:10067000001002400000FFF8FFFFF6FE08ED00E06A
:1006800000BFFEE702E008C8121F08C1002AFAD125
:1006900070477047002001E001C1121F002AFBD102
:1006A00070470000FFF7BCFFFFF775FD0F2203A1A5
:1006B0000020FFF774FD00BFFEE700007364686F61
:1006C000676F736A67210000E806000800000020D9
:1006D0000400000084060008EC0600080400002066
:0C06E00004040000940600080000000064
:0400000508000131BD
:00000001FF
